:100000000C947A010C94AB010C94AB010C94AB01F1
:100010000C94AB010C94AB010C94AB010C94AB01B0
:100020000C94AB010C94AB010C94AB010C94AB01A0
:100030000C94AB010C94AB010C94AB010C94AB0190
:100040000C94AB010C94AB010C94AB010C94AB0180
:100050000C94AB010C94AB010C94AB010C94891083
:100060000C94AB010C94EF130C94DF140C94AB01C3
:100070000C94AB010C94AB010C94AB010C94AB0150
:100080000C94AB010C94AB010C94AB010C94AB0140
:100090000C9423140C941E150C94AB010C94AB011E
:1000A0000C94AB010C94AB010C94AB010C94AB0120
:1000B0000C94AB010C94AB010C94AB010C94AB0110
:1000C0000C94AB010C94AB010C94AB010C94571441
:1000D0000C945D150C94AB010C948B140C949C1532
:1000E0000C94AB01A311A61199119D11DD11AA1158
:1000F000AE11B411B811BC11C211C611CA11DD1173
:10010000D011D411D8110C9442060C943B130C94CA
:10011000FF0F0C94C6110C9431080C94B4110C947C
:1001200035020C9417020C94A3110C9432020C9417
:10013000B8110C94BE140C9442020C94C60D0C948D
:10014000AE110C945E040C9423020C9426020C94C1
:100150001A020C94AA110C941D020C94BC110C945C
:100160004B130C94A4040C94A6110C9492130C94AD
:100170009D110C94DD110C9446090C94D4110C942F
:100180002F020C9438020C9445020C9426070C9410
:100190003B020C9488040C94FF070C94340A0C94D2
:1001A000D8110C94D1010C94D0110C94F0080C943B
:1001B00031170C9420020C946A030C9467130C946E
:1001C000AD010C94C2110C945F160C94CA110C94DE
:1001D00029020C943F020C942C020C9487130C946B
:1001E0009A030C9499110C944A020000090A02081F
:1001F0000B0C0D07060304010000000000000000C6
:1002000000000000000000000000000000000000EE
:1002100000000000000011100F00000000000000AE
:1002200000000000000000000000000000000000CE
:1002300001021020200808102040102040800201F8
:1002400002010804020101020408102040808040DD
:1002500020100804020180040201804020100804DC
:10026000020108040201010204081020408001027A
:100270000408102040800505050507050808080842
:10028000020202020A0A080804040404010101012E
:100290000101010103030303030303030407070729
:1002A0000C0C0C0C0C0C0C0C0202020206060606CE
:1002B000060606060B0B0B0B0B0B0B0B00002200AC
:1002C000250028002B002E00310034000201000020
:1002D000050108010B0100002100240027002A006D
:1002E0002D003000330001010000040107010A0164
:1002F000FF0F5F1611241FBECFEFD1E2DEBFCDBFCF
:1003000000E00CBF14E0A0E0B2E0EAEBF2E300E0B2
:100310000BBF02C007900D92AE31B107D9F72BE0A9
:10032000AEE1B4E001C01D92A33DB207E1F711E0D8
:10033000CAE7D1E000E006C021970109802FFE0145
:100340000E941C19C837D10780E00807A9F70E944E
:100350002E130C945B190C940000DC01FB01129627
:100360008C911297808313968C91139781831496A6
:100370008C911497828315968C911597838316968A
:100380008C911697848317968C911797858318966E
:100390008C911897868319968C91878388E090E0DA
:1003A0000895FC01DB014C9150E060E070E0428375
:1003B00053836483758311968C911197582B4283D4
:1003C00053836483758312968C911297682B4283B2
:1003D00053836483758313968C911397782B428390
:1003E00053836483758314964C91149750E060E0B6
:1003F00070E0468357836087718715968C911597B7
:10040000582B468357836087718716968C91169771
:10041000682B468357836087718717968C91782B5A
:10042000468357836087718788E090E0089588E06D
:1004300092E0089586E192E0089587E392E00895BE
:1004400080E592E0089581E792E0089584E892E0E3
:10045000089582EF93E0089585EA92E0089586EC8E
:1004600092E008958CED92E008958DEF92E008956A
:1004700081E193E00895FC0186A197A108958DEF95
:1004800092E0089581E193E008958A579B4FFC0123
:1004900080810895AF92BF92CF92DF92EF92FF9248
:1004A0000F931F93CF93DF9300D01F921F92CDB76E
:1004B000DEB7643671053CF0FC01EA57FB4F208142
:1004C000222309F477C0DA017B018C01BC01615E53
:1004D0007D4FED91FC910190F081E02DCA011995BD
:1004E000680128EEC21A2DEFD20A2FEFD6012C9305
:1004F000F801E75EFD4F2EEF208331968083319621
:1005000090833196292F280F209520833196E08201
:100510001696FC9245E050E020E030E0DC011696B3
:10052000A417B50734F06191260F311D4F5F5F4F5F
:10053000F7CF7C01B8E0EB0EF11C800F911FFC019E
:10054000E15EFD4F20952083E1E0EE16E2E0FE063D
:10055000BCF45601C5018C199D098E159F056CF5DB
:10056000D80112968D919C911397F50161915F01CD
:10057000DC01ED91FC910190F081E02D1995EACF1D
:1005800080E993E09A83898383E08B8382E393E01D
:100590009D838C83D801ED91FC910190F081E02D39
:1005A000AE014F5F5F4F67E070E0C80119958FEFB4
:1005B0009FEF04C080E090E001C0C7010F900F9052
:1005C0000F900F900F90DF91CF911F910F91FF909F
:1005D000EF90DF90CF90BF90AF9008958F929F9251
:1005E000AF92BF92CF92DF92EF92FF92CF93DF93C1
:1005F000EC014A015B01DB01CA0157E1B595A79502
:10060000979587955A95D1F79927AA27BB270097E1
:10061000A105B10521F080589C4FAF4FBF4F188204
:1006200019821A82B501A40125E0440F551F661FE7
:10063000771F2A95D1F74B83B501A40133E0759557
:100640006795579547953A95D1F74C83B501A40125
:10065000EBE07595679557954795EA95D1F74D83EA
:10066000B501A401F3E17595679557954795FA95FE
:10067000D1F7242F2F70AC01BD0134E0440F551F7A
:10068000661F771F3A95D1F7422B4E836C017D018F
:1006900044E0F594E794D794C7944A95D1F720E0C5
:1006A00030E0A901C501B4010E94A81887FD02C06D
:1006B000CF8203C08C2D80688F8388E090E0DF912B
:1006C000CF91FF90EF90DF90CF90BF90AF909F9031
:1006D0008F900895EF92FF920F931F93CF93DF9324
:1006E0007C018B01FC014281538164817581C801C9
:1006F0000E94EE02EC01F701468157816085718509
:10070000C8018C0F9D1F0E94EE02C80FD91FF70170
:100710004285538564857585C8018C0F9D1F0E9495
:10072000EE028C0F9D1FDF91CF911F910F91FF90D3
:10073000EF900895EF92FF920F931F93CF93DF9363
:100740007C01EB0102960E946A038C01BE01680FD6
:10075000791FC70140960E946A03800F911FDF91A5
:10076000CF911F910F91FF90EF9008958F929F92DC
:10077000AF92BF92CF92DF92EF92FF920F931F93AF
:10078000FC01DB01C380C294C69427E0C2228C2CFA
:10079000912CA12CB12C8D929D92AD92BC9213976D
:1007A000048110E020E030E043E0000F111F221F21
:1007B000331F4A95D1F768017901C828D928EA285A
:1007C000FB28CD92DD92ED92FC921397458150E08B
:1007D00060E070E01BE0440F551F661F771F1A95FD
:1007E000D1F78A019B010C291D292E293F290D9340
:1007F0001D932D933C93139746814F7050E060E01A
:1008000070E083E1440F551F661F771F8A95D1F76B
:10081000402B512B622B732B4D935D936D937C93E7
:100820001397868182958F7007810F7710E020E003
:1008300030E094E0000F111F221F331F9A95D1F76B
:10084000082B0115110521053105A1F000581340B1
:100850002109310997E1000F111F221F331F9A95BB
:10086000D1F7042B152B262B372B0D931D932D938E
:100870003C9313974781407850E060E070E0742F1C
:100880006627552744270D911D912D913C91139773
:10089000402B512B622B732B4D935D936D937C9367
:1008A000139788E090E01F910F91FF90EF90DF90F9
:1008B000CF90BF90AF909F908F900895EF92FF924E
:1008C0000F931F93CF93DF938C017B01BC016E5F6D
:1008D0007F4FC7010E94B603EC01B8016A5F7F4FEA
:1008E000C7018C0F9D1F0E94B603C80FD91FB80106
:1008F000665F7F4FC7018C0F9D1F0E94B6038C0F50
:100900009D1FDF91CF911F910F91FF90EF90089560
:10091000EF92FF920F931F93CF93DF937C01EB0134
:1009200002960E945E048C01BE01680F791FC70108
:1009300040960E945E04800F911FDF91CF911F911E
:100940000F91FF90EF9008950F931F93CF93DF9334
:100950008C01EC012696CE010E948804D801949661
:10096000ED91FC919597CE01DF91CF911F910F9161
:100970001994FC0184EB93E09183808388EA93E0EF
:1009800093838283148215821682178210861186C1
:10099000128613861486158616861786918B808B91
:1009A000128A138A148A158A168A178A108E118E53
:1009B000128E138E148E158E08958F929F92AF9281
:1009C000BF92CF92DF92EF92FF920F931F93CF933C
:1009D000DF934091700450917104609172047091A2
:1009E000730480916E0490916F040E94DB15109245
:1009F000E9081092E8081092EB081092EA081092A9
:100A0000EF081092EE081092ED081092EC08E6EB59
:100A1000F8E080E090E021913191232BE1F4FC019A
:100A2000EE0FFF1FEA54F74F2EE134E031832083AD
:100A30008C599F4F9093210480932004CAEED3E0F9
:100A40008AEDC82E83E0D82E92EDE92E93E0F92EA0
:100A500002EE13E005C0019689319105E1F6EECF73
:100A6000B880229661E08B2D0E94DE11F601A080F5
:100A7000F2E0CF0ED11C61E08A2D0E94DE11F70159
:100A80008080F2E0EF0EF11C61E0882D0E94DE1103
:100A9000F80190800E5F1F4F61E0892D0E94DE11EA
:100AA00060E0882D0E941A1260E0892D0E941A12BF
:100AB00060E08A2D0E941A1260E08B2D0E941A12AB
:100AC000F3E0C23FDF0761F6DF91CF911F910F91F5
:100AD000FF90EF90DF90CF90BF90AF909F908F905E
:100AE000089561E088E00E941A1261E089E00E94A6
:100AF0001A1261E08AE00E941A1261E08BE00C9405
:100B00001A120F931F93CF93DF938C01C0E0D0E0B4
:100B1000C017D10774F561E088E00E941A1261E005
:100B200089E00E941A1261E08AE00E941A1261E0D4
:100B30008BE00E941A1261E070E080E090E00E9479
:100B4000041160E088E00E941A1260E089E00E94CF
:100B50001A1260E08AE00E941A1260E08BE00E94A4
:100B60001A1261E070E080E090E00E94041121968A
:100B7000CFCFDF91CF911F910F91089560E082E375
:100B80000E941A1261E083E30E941A1260E080E37F
:100B90000E941A1261E081E30E941A128091000201
:100BA000909101020C94810561E082E30E941A1287
:100BB00060E083E30E941A1261E080E30E941A124F
:100BC00060E081E30E941A1280910002909101027C
:100BD0000C94810561E082E30E941A1261E083E3D4
:100BE0000E941A1260E080E30E941A1260E081E322
:100BF0000E941A1280910002909101020C948105CA
:100C000060E082E30E941A1260E083E30E941A12FD
:100C100061E080E30E941A1261E081E30E941A12EF
:100C200080910002909101020C94810560E082E3C2
:100C30000E941A1260E083E30E941A1260E080E3CF
:100C40000E941A1260E081E30E941A128091000251
:100C5000909101020C94810561E082E30E941A12D6
:100C600061E083E30E941A1261E080E30E941A129D
:100C700061E081E30E941A128091000290910102CA
:100C80000C9481058F929F92AF92BF92CF92DF9288
:100C9000EF92FF92FC0184809580A680B7808092BD
:100CA0004A0490924B04A0924C04B0924D04C28C22
:100CB000D38CE48CF58CC0924604D0924704E09229
:100CC0004804F092490420E030E0A901C501B401D4
:100CD0000E94A81887FF13C020E030E0A901C701D7
:100CE000B6010E94A81881110AC0FF90EF90DF9012
:100CF000CF90BF90AF909F908F900C94BE0520E056
:100D000030E0A901C501B4010E94A818811126C0D4
:100D100020E030E0A901C701B6010E94A81887FFB2
:100D20000AC0FF90EF90DF90CF90BF90AF909F9060
:100D30008F900C94EA0520E030E0A901C701B601CC
:100D40000E94D118181654F4FF90EF90DF90CF90C6
:100D5000BF90AF909F908F900C94000620E030E001
:100D6000A901C501B4010E94D11818169CF420E015
:100D700030E0A901C701B6010E94A81881110AC07C
:100D8000FF90EF90DF90CF90BF90AF909F908F90AB
:100D90000C94D40520E030E0A901C501B4010E9403
:100DA000A81820E030E0A90187FF10C0C701B601F4
:100DB0000E94D118181684F4FF90EF90DF90CF9026
:100DC000BF90AF909F908F900C941606C501B40110
:100DD0000E94A81887FF13C020E030E0A901C701D6
:100DE000B6010E94A81887FF0AC0FF90EF90DF901D
:100DF000CF90BF90AF909F908F900C942C06FF9057
:100E0000EF90DF90CF90BF90AF909F908F900C9419
:100E10007105CF92DF92EF92FF9220E030E06A01FD
:100E20007B01022E04C0F694E794D794C7940A94E9
:100E3000D2F7FC01C192CF01285F3F4F203231052C
:100E400071F7FF90EF90DF90CF9008954F925F92EF
:100E50006F927F92AF92BF92CF92DF92EF92FF920A
:100E60000F931F93CF93DF93EC018B018A81FB01DA
:100E700080838B8181838C8182838D818383DB015D
:100E800040E050E0BA01E4E0F0E01496CA80DB8074
:100E9000EC80FD80CF0104964C155D056E057F0545
:100EA000C8F42A853B85E20FF31F3497D080F18088
:100EB00032812381DC921196FC92119712963C9319
:100EC000129713962C931397FC014F5F5F4F6F4F50
:100ED0007F4FDBCF5F01A00EB11E2C85F501208373
:100EE0002D8521832E8522832F852383D50140E004
:100EF00050E0BA01CC84DD84EE84FF849C012C5F39
:100F00003F4F4C155D056E057F05F8F4CD018A193C
:100F10009B09EC88FD888E0D9F1DFC01D080E1802F
:100F2000F28083811496DC9214971596EC921597B3
:100F30001696FC92169717968C931797C9014F5FD8
:100F40005F4F6F4F7F4F1496D5CFF801E80FF91F11
:100F50008E8980838F898183888D8283898D838325
:100F60007901A12CB12C412C512C32018E899F8901
:100F7000A88DB98D481659066A067B0680F5EC8D5A
:100F8000FD8DEA0DFB1DA081B181FD0101900020C6
:100F9000E9F731976F01CA1ADB0AA60160E070E039
:100FA000C8018E0D9F1D0E940907F4E0EF0EF11C91
:100FB000EC8DFD8DEA0DFB1D60817181A601C801DC
:100FC0008E0D9F1D0E945219EC0CFD1C8FEF481ACC
:100FD000580A680A780AE2E0AE0EB11CC7CFC70112
:100FE000DF91CF911F910F91FF90EF90DF90CF9005
:100FF000BF90AF907F906F905F904F900895EF9269
:10100000FF920F931F93CF93DF938C017B01DC0141
:1010100012962C911297FB012193CF011396ED911B
:10102000FC911497EF0109900020E9F72197CE1B5E
:10103000DF0BAE0160E070E00E940907D801139653
:101040006D917C911497AE01C70105960E945219CB
:10105000CE010596DF91CF911F910F91FF90EF90F8
:101060000895CF92DF92EF92FF920F931F93CF9349
:10107000DF937C018B01DC0112968C911297FB01AE
:10108000808313968C91139781831496ED91FC9134
:101090001597EF0109900020E9F72197CE1BDF0B90
:1010A000AE0160E070E0C80102960E940907D70116
:1010B00014966D917C911597AE01C80106960E9419
:1010C0005219CE010696F701A681B781FD01019064
:1010D0000020E9F731976F01CA1ADB0AA60160E028
:1010E00070E0800F911F0E9409072A96D70116967B
:1010F0006D917C911797A601C8018C0F9D1F0E94CE
:101100005219CC0DDD1DD7011896ED91FC91199760
:10111000DF010D900020E9F711976D01CE1ADF0A6B
:10112000A60160E070E0C8018C0F9D1F0E940907B6
:101130002496F70160857185A601C8018C0F9D1F5B
:101140000E945219C6018C0F9D1FD7011A966C91EF
:101150001A971B964C911B971C963C911C971D96B9
:101160002C91F801E80FF91F6083418332832383B8
:101170000496DF91CF911F910F91FF90EF90DF9038
:10118000CF900895CF92DF92EF92FF92FC011082F0
:10119000118212821382DB0120E030E04D9150E099
:1011A000022E02C0440F551F0A94E2F7052E000CD0
:1011B000660B770BC080D180E280F3804C295D29DB
:1011C0006E297F294083518362837383285F3F4F59
:1011D0002032310519F7FF90EF90DF90CF900895FE
:1011E0004F925F926F927F928F929F92AF92BF9237
:1011F000EF92FF920F931F93CF93DF9300D01F9234
:10120000CDB7DEB77C018B01FB018191BF01F701F6
:101210008283CE0101960E94C20889819A81AB81A6
:10122000BC814C015D01F5E08F0E911CA11CB11C2D
:10123000A8014C5F5F4FFA0125E030E02901612CE5
:10124000712C481459046A047B0428F46181619369
:101250002F5F3F4FF3CFF801E80FF91F1482F7011A
:101260005483438305960F900F900F900F90DF915A
:10127000CF911F910F91FF90EF90BF90AF909F90F3
:101280008F907F906F905F904F9008954F925F92F4
:101290006F927F928F929F92AF92BF92CF92DF9286
:1012A000EF92FF920F931F93CF93DF93CDB7DEB7EB
:1012B0002C970FB6F894DEBF0FBECDBF7C018B011B
:1012C000DB018C9190E0F7019383828311962C913E
:1012D000922B938382836E5F7F4FCE0109960E948B
:1012E000C20889849A84AB84BC8424013501F6E069
:1012F0004F0E511C611C711C98012B5F3F4FF9016F
:1013000086E090E0AC0160E070E0441555056605AC
:10131000770520F4418141930196F4CFF801E80D5F
:10132000F91D1582D70115963C932E931497B4019D
:101330006A5F7F4F600F711FCE0105960E94C20841
:10134000BAE08B0E911C4D805E806F807884A40182
:10135000092C000C660B770B440D551D661D771D7F
:10136000D801A80DB91DCD01801B910B5C01C12CCA
:10137000D12CA416B506C606D70628F48D91FD011A
:1013800032978083F0CF5401A40CB51CB8016A0DCC
:101390007B1DFB0131971082C4010197800F911FC3
:1013A000F70197838683CE0101960E94C2089501BA
:1013B0002C5F3F4F89819A81AB81BC812901032E2B
:1013C000000C66087708480E591E6A1E7B1EF50140
:1013D0003396E00FF11FA9014A01A12CB12C84140E
:1013E0009504A604B70428F4618161934F5F5F4FB1
:1013F000F3CF820F931FF801E80FF91FDF01119758
:101400001C9221503109020F131FD70119961C930A
:101410000E9318972181428150E060E070E0BA019C
:1014200055274427522B2081422B2381722BF70111
:10143000428753876487758704962C960FB6F89475
:10144000DEBF0FBECDBFDF91CF911F910F91FF90F7
:10145000EF90DF90CF90BF90AF909F908F907F9054
:101460006F905F904F9008952F923F924F925F92AE
:101470006F927F928F929F92AF92BF92CF92DF92A4
:10148000EF92FF920F931F93CF93DF93CDB7DEB709
:1014900060970FB6F894DEBF0FBECDBF8C016B0115
:1014A000DB018D909D90AD90BC90FC018281938179
:1014B000A481B58188159905AA05BB0570F4B4010E
:1014C000660F771F660F771F828593850E944912EA
:1014D000D8011B969C938E931A97F801828293826F
:1014E000A482B5829601812C912C540144E050E0F5
:1014F000B8016A5F7F4F2C5F3F4FF8018281938173
:10150000A481B581FA0134961F0188169906AA06AE
:10151000BB0650F5D9011196FC90119712968C914B
:1015200090E0A0E0B0E0DC01992788279F29F9012D
:10153000F0808F29F380BF29F80186839783A087E5
:10154000B187DA01A101149782859385A80FB91F8D
:1015500084E0FB0101900D928A95E1F7FFEF8F1A6D
:101560009F0AAF0ABF0AC7CF4601840E951ED40159
:101570008C9111969C91119712964C901297512C28
:10158000612C712C320155244424592A482A13967F
:101590008C91782A5F01F80184859585A685B785A9
:1015A00084159505A605B70570F4B201660F771F7F
:1015B000660F771F848995890E944912D801559634
:1015C0009C938E935497F801448655866686778659
:1015D000C401412C512C32019801205F3F4FD801AA
:1015E0001C964D915D916D917C911F97F5013496FC
:1015F000441655066606770698F5DC011596FC90AC
:10160000159716964C91169750E060E070E0BA017D
:10161000552744275F291496FC9014974F29179655
:10162000FC907F29D80150964D935D936D937C93E8
:1016300053975F01AC014819590954960D90BC911C
:10164000A02DA40FB51F44E0F90101900D924A9519
:10165000E1F7BFEF4B1A5B0A6B0A7B0A0496BFCF18
:10166000D601AA0DBB1D8C9111969C9111971296D3
:101670008C901297912CA12CB12C54019924882480
:10168000992A882A13968C91B82A7F01F8018689B5
:101690009789A08DB18D88159905AA05BB0560F4C1
:1016A000B401660F771F848D958D0E944912D80171
:1016B0005D969C938E935C97F801868A978AA08E9C
:1016C000B18E212C312C812C912C54019801265E55
:1016D0003F4F3A872987F80186899789A08DB18D78
:1016E00088169906AA06BB0608F05FC0B6016E0D03
:1016F0007F1DCE0101960E94C20897012C5F3F4FCB
:10170000388B2F8749815A816B817C81C901330FC6
:10171000AA0BBB0B2C013D01440E551E661E771E05
:101720004B865C866D867E8623E0E20EF11CF60118
:10173000EE0DFF1D2F853889C901A0E0B0E04B8474
:101740005C846D847E8484159505A605B70528F410
:10175000A181A1932F5F3F4FEFCF6F847888460D13
:10176000571DF601E40FF51F31971082C301019751
:101770008C0D9D1DD8015B969C938E935A977A0190
:101780005C96ED91FC915D97E20DF31DA985BA85FC
:101790008D919C9191838083BFEF8B1A9B0AAB0A3A
:1017A000BB0AE2E02E0E311C96CFC70160960FB641
:1017B000F894DEBF0FBECDBFDF91CF911F910F9187
:1017C000FF90EF90DF90CF90BF90AF909F908F9061
:1017D0007F906F905F904F903F902F9008950F9360
:1017E0001F93CF93DF93CDB7DEB72A970FB6F89448
:1017F000DEBF0FBECDBF8C0188E793E09A8389835B
:101800001B821C821D821E821F82188619861A86E0
:10181000D801ED91FC910190F081E02DAE014F5F78
:101820005F4F6AE070E0C80119950E94D310F8017B
:1018300060877187828793872A960FB6F894DEBFF8
:101840000FBECDBFDF91CF911F910F9108954F92A1
:101850005F926F927F92AF92BF92CF92DF92EF92A0
:10186000FF920F931F93CF93DF93CDB7DEB72E97E1
:101870000FB6F894DEBF0FBECDBF8C0184E893E0B5
:101880009A8389831C821B828AE693E09E838D83E0
:1018900098878F839A8789871B861C861D861E865C
:1018A000680188EEC81A8BEFD80A7801A6EBEA1A0D
:1018B000ABEFFA0A412C92E0592E612C712CD60123
:1018C000ED91FC913097A9F1848195819C838B8364
:1018D000808191819E838D8382819381DC01ED9152
:1018E000FC910480F581E02D199598878F83D601AE
:1018F000ED91FC9182819381DC01ED91FC91068058
:10190000F781E02D19959A8789874B865C866D86CD
:101910007E86D601ED91FC9160857185D801ED91AF
:10192000FC910190F081E02DAE014F5F5F4FC80147
:101930001995B2E0CB0ED11CCE14DF0409F0BFCF55
:101940006801E4E8CE1AEBEFDE0A412C82E0582E63
:10195000612C712CF701A081B1811097E1F11296F1
:101960008D919C9113979C838B8314968D919C9160
:1019700015979E838D83ED91FC9111970480F581DD
:10198000E02DCD01199598878F83D7018D919C917A
:10199000DC01ED91FC910680F781E02D19959A8785
:1019A00089874B865C866D867E86D801ED91FC9199
:1019B000A080B180F70180819181DC01ED91FC91E3
:1019C0000280F381E02D1995AE014F5F5F4FBC019E
:1019D000C801F5011995F2E0EF0EF11CCE14DF04F9
:1019E00009F0B8CFF801EA57FB4F81E080832E96CB
:1019F0000FB6F894DEBF0FBECDBFDF91CF911F9120
:101A00000F91FF90EF90DF90CF90BF90AF907F90BD
:101A10006F905F904F9008958F929F92AF92BF9278
:101A2000CF92DF92EF92FF920F931F93CF93DF93AA
:101A3000CDB7DEB72A970FB6F894DEBF0FBECDBF85
:101A40008C015B0188E793E09A8389831B821C8267
:101A50001D821E821F82188619861A860E94D31044
:101A6000F801C084D184E284F3849B01AC012C1979
:101A70003D094E095F0969017A01B501CE01019660
:101A80000E94D10188EE882E83E0982EA12CB12CE3
:101A9000C701B601A50194010E94FA18CB80DC8031
:101AA000ED80FE80C20ED31EE41EF51ECB82DC82CA
:101AB000ED82FE829B01AC0160E472E48FE090E075
:101AC0000E94D618CF80D884E984FA84DC01CB0147
:101AD0008C0D9D1DAE1DBF1D8F839887A987BA876A
:101AE0000E94D310CB80DC80ED80FE8031E0C31AF1
:101AF000D108E108F108A50194010E94FA18C21A60
:101B0000D30AE40AF50AF801C486D586E686F78684
:101B1000CF80D884E984FA84F6E3DF1AF5E6EF0A89
:101B2000F4ECFF0A9B01AC0160E472E48FE090E00A
:101B30000E94D618C61AD70AE80AF90AF801C08A1C
:101B4000D18AE28AF38AB801605F7F4FC8010C96A0
:101B50000E947A180E94D310F801E557FB4F60836A
:101B60007183828393832A960FB6F894DEBF0FBEEB
:101B7000CDBFDF91CF911F910F91FF90EF90DF903C
:101B8000CF90BF90AF909F908F9008952F923F92EB
:101B90004F925F926F927F928F929F92AF92BF927D
:101BA000CF92DF92EF92FF920F931F93CF93DF9329
:101BB000CDB7DEB760970FB6F894DEBF0FBECDBFCE
:101BC000988B8F870E94D3104B015C012F85388939
:101BD00025573B4F3E832D83F90180819181A2815E
:101BE000B381A5019401281B390B4A0B5B0BDA0169
:101BF000C901893F9A42A105B10528F0EF85F8890E
:101C0000EA57FB4F10820F85188904581B4FD801E3
:101C10008D919C91892B81F0EF85F889E157FB4FDD
:101C200080819181A281B38188159905AA05BB05A0
:101C300018F4F801118210826F847888FCE76F1A1B
:101C4000FBEF7F0A2F85388920583B4F3A83298341
:101C5000CF84D88838E1C30ED11C4F8558894A57A4
:101C60005B4F58874F838F8598898C569B4F9A87F7
:101C70008987AF85B889AD56BB4FBC87AB87EF84EA
:101C8000F888B2E8EB1ABBEFFB0AEF85F889EE574C
:101C9000FB4FFC83EB832F85388921573B4F3E87D1
:101CA0002D871401250134E1230E311C411C511CE8
:101CB000EF85F88984899589A689B789892B8A2B2C
:101CC0008B2B89F4AF85B88912968D919C911397CF
:101CD000DC01ED91FC910680F781E02D19959C01C6
:101CE00097FF15C03CC10E94D310DC01CB018819BD
:101CF0009909AA09BB09EF85F8892489358946899C
:101D00005789281739074A075B07E0F650C1D30106
:101D10008D919C911197820F931F8D939C93F80145
:101D20004081518147305105D9F4AB81BC818D91FF
:101D30009C911197AC014F5F5F4F4D935C93EF8582
:101D4000F889E80FF91F208FF701808191810197B1
:101D500091838083892B09F0ABCF88E090E06FC03E
:101D60004115510529F52F3F310569F481E090E0D7
:101D7000F80191838083AD85BE852D923D924D9271
:101D80005C92139795CF0E94D310DC01CB01881988
:101D90009909AA09BB0989389341A105B10508F43D
:101DA00087CF2F8538892A573B4FD9011C92FFC016
:101DB0004130510591F42E3F310519F482E090E055
:101DC0002EC011821082EF81F8858081811170CF41
:101DD0008F8598890E94EF0B6BCF4230510581F4BB
:101DE000D7012D933C93EB81FC811182108283E01B
:101DF00090E0D8018D939C93F3013183208358CFD9
:101E00004330510581F4322F2227D7018D919C91C7
:101E10001197280F391F2D933C9384E090E0F8012F
:101E20009183808345CF4430510589F460E071E0AF
:101E30000E94E6188F3F910531F485E090E0D801CB
:101E40008D939C9335CFF8011182108231CF4530AC
:101E5000510569F4A981BA812D933C9346E050E085
:101E6000F80151834083D3012D933C9321CF463019
:101E7000510599F4322F2227E981FA8180819181DD
:101E8000280F391F31832083E7E0F0E0D801ED937C
:101E9000FC93D7018D919C915DCF4830510509F09D
:101EA00007CFF8011182108260E071E00E94E6180D
:101EB0008F3F910509F0FCCEA981BA818D919C914B
:101EC0000097C9F48F8598890E94EF0B8F859889B8
:101ED0000E94270CEF85F889E957FB4F8082918299
:101EE000A282B382ED81FE8180829182A282B3823E
:101EF0008FEF9FEF61C08A30910531F4B6018F8575
:101F000098890E940C0DD4CE8630910551F4B6010B
:101F100089859A850E94340A81E0AB85BC858C93C3
:101F2000C7CE8B30910521F4EF81F8851082C0CEA9
:101F3000FC01EF53FE4FEE0FFF1F2F853889E20F94
:101F4000F31F80819181009709F4B2CEDC01ED91FD
:101F5000FC910190F081E02DB6011995A9CEEF8595
:101F6000F889EA57FB4F8081882321F10F85188972
:101F700009571B4FF80180819181A281B381A5018E
:101F80009401281B390B4A0B5B0BDA01C901853C14
:101F90009940A105B10570F08F8598890E94EF0BDB
:101FA000D8018D929D92AD92BC92139703C08EEF93
:101FB0009FEF02C080E090E060960FB6F894DEBF1D
:101FC0000FBECDBFDF91CF911F910F91FF90EF908A
:101FD000DF90CF90BF90AF909F908F907F906F9049
:101FE0005F904F903F902F9008958CE694E00E9470
:101FF000C60D64E670E080E090E00C94041180EC83
:1020000093E090936D0480936C048DE899E0909335
:102010006F0480936E0480E091EEA0E0B0E08093C6
:10202000700490937104A0937204B093730410929F
:10203000F2088CE993E090930109809300091092D3
:1020400002091092030910920409109205091092D6
:102050000B0910920A0910920C0910920D091092A6
:102060000E0910920F09109215091092140910927E
:102070001609109217091092180910921909109256
:102080001D0910921C09E6EBF8E0A4E8B8E01D92E7
:102090001D92EA17FB07D9F788EE98E0119211928A
:1020A0008E179F07D9F7A4E8B4E0E4E8F6E01D92A4
:1020B000EA17FB07E1F7119288E0E438F807D9F74F
:1020C0001092800410928104109282041092830472
:1020D0008EE494E00E94B9048AEC93E090931F048C
:1020E00080931E0484E294E00E94B90482E496E0A6
:1020F000909343048093420481E090E090934504E0
:10210000809344048BE693E090932304809322040D
:1021100008951F920F920FB60F9211242F933F93A1
:102120008F939F93AF93BF9380911F099091200944
:10213000A0912109B091220930911E0923E0230FBB
:102140002D3720F40196A11DB11D05C026E8230FEF
:102150000296A11DB11D20931E0980931F09909323
:102160002009A0932109B09322098091230990911D
:102170002409A0912509B09126090196A11DB11D40
:102180008093230990932409A0932509B0932609ED
:10219000BF91AF919F918F913F912F910F900FBE63
:1021A0000F901F9018952FB7F89460911F097091A8
:1021B000200980912109909122092FBF08953FB7EE
:1021C000F8948091230990912409A0912509B09158
:1021D000260926B5A89B05C02F3F19F00196A11D21
:1021E000B11D3FBFBA2FA92F982F8827820F911DAD
:1021F000A11DB11DBC01CD0142E0660F771F881FF4
:10220000991F4A95D1F70895CF92DF92EF92FF92EE
:10221000CF93DF936B017C010E94DF10EB01C114AF
:10222000D104E104F10479F00E94DF106C1B7D0BF6
:10223000683E7340A0F381E0C81AD108E108F108B4
:10224000C851DC4FECCFDF91CF91FF90EF90DF9042
:10225000CF900895789484B5826084BD84B5816000
:1022600084BD85B5826085BD85B5816085BDEEE69E
:10227000F0E0808181608083E1E8F0E0108280817D
:1022800082608083808181608083E0E8F0E08081EB
:1022900081608083E1EBF0E0808184608083E0EB0B
:1022A000F0E0808181608083E1E9F0E080818260FC
:1022B0008083808181608083E0E9F0E080818160BB
:1022C0008083E1EAF0E080818260808380818160A8
:1022D0008083E0EAF0E0808181608083E1E2F1E0E8
:1022E000808182608083808181608083E0E2F1E090
:1022F000808181608083EAE7F0E080818460808370
:102300008081826080838081816080838081806819
:1023100080831092C100089590E0FC013197E13173
:10232000F10508F04AC08827EE58FF4F8F4F0C94F4
:102330001C19809180008F7703C0809180008F7D71
:1023400080938000089584B58F7702C084B58F7D17
:1023500084BD08958091B0008F7703C08091B00054
:102360008F7D8093B0000895809190008F7707C093
:10237000809190008F7D03C080919000877F809333
:10238000900008958091A0008F7707C08091A000F1
:102390008F7D03C08091A000877F8093A000089567
:1023A000809120018F7707C0809120018F7D03C02D
:1023B00080912001877F809320010895CF93DF9340
:1023C00090E0FC01E05DFD4F2491FC01EA58FD4FD7
:1023D0008491882361F190E0880F991FFC01EA52F3
:1023E000FD4FC591D491FC01E454FD4FA591B491EA
:1023F000611109C09FB7F894888120958223888352
:10240000EC912E230BC0623061F49FB7F894888161
:10241000322F309583238883EC912E2B2C939FBFF2
:1024200006C08FB7F894E8812E2B28838FBFDF91E9
:10243000CF9108951F93CF93DF93282F30E0F901B8
:10244000E651FE4F8491F901E05DFD4FD491F90111
:10245000EA58FD4FC491CC23C1F0162F81110E9480
:102460008C11EC2FF0E0EE0FFF1FE454FD4FA5910F
:10247000B4919FB7F894111104C08C91D095D823D2
:1024800002C0EC91DE2BDC939FBFDF91CF911F91B7
:1024900008956F927F928F929F92AF92BF92CF9248
:1024A000DF92EF92FF920F931F93CF93DF930097EA
:1024B00089F4CB01DF91CF911F910F91FF90EF90A5
:1024C000DF90CF90BF90AF909F908F907F906F9054
:1024D0000C945917FC01E60FF71F9C01225031099B
:1024E000E217F30708F4A9C0EC01D9010D911C9182
:1024F000119706171707B0F00530110508F49BC0B7
:10250000C80104978617970708F495C0025011096F
:10251000061B170B019311936D937C93CF010E94BF
:10252000F11789C05B01A01AB10A4C01800E911EFF
:10253000A091D10BB091D20B612C712CE12CF12C1C
:10254000109709F446C08D919C911197A815B90573
:10255000B1F56C0142E0C40ED11CCA14DB0478F161
:102560004C018A189B08640142E0C40ED11C1296EB
:10257000BC9012971396AC91B5E0CB16D10440F005
:10258000B282A38391828082D9016D937C9309C02A
:102590000E5F1F4F800F911FF90191838083EB2DF8
:1025A000FA2FE114F10431F0D7011396FC93EE9366
:1025B000129741C0F093D20BE093D10B3CC0681648
:1025C000790608F43C017D0112960D90BC91A02D76
:1025D000B7CF8091CF0B9091D00B88169906E1F47C
:1025E00066167706C8F48091020290910302009764
:1025F00041F48DB79EB74091060250910702841BAB
:10260000950BE817F907C8F4F093D00BE093CF0BC4
:10261000F901718360830FC0CB010E9459177C01BF
:10262000009759F0A801BE010E945219CE010E94E4
:10263000F117C70104C0CE0102C080E090E0DF9135
:10264000CF911F910F91FF90EF90DF90CF90BF90AF
:10265000AF909F908F907F906F9008950E942A1165
:102660000E94DD04CEEBD4E10E94F50F2097E1F348
:102670000E94BE14F9CFFC0124853585F901E05C88
:10268000FF4F80819181329620813181821B930B93
:102690008F7399270895DC011C96ED91FC911D978D
:1026A000DF01A05CBF4F2D913C91119712968D9147
:1026B0009C9111972817390739F08D919C91E80F5B
:1026C000F91F808190E008958FEF9FEF0895FC013E
:1026D000A485B585FD01E05CFF4F208131813296F4
:1026E000808191812817390779F080819181A80F25
:1026F000B91F8C91208131812F5F3F4F2F7333277A
:102700003183208390E008958FEF9FEF0895FC01BF
:1027100081A1882329F0A489B5898C9186FFFBCFFC
:1027200011A208950F931F93CF93DF93FC01A68509
:10273000B7858D01005C1F4FE80188819981019662
:102740008F739927AD014E5B5F4FEA012881398174
:1027500028173907D1F3E80128813981A20FB31F67
:102760006C93A685B785A05CBF4F11969C938E9302
:10277000A689B7892C9181E090E0078C02C0880F70
:10278000991F0A94E2F7822B8C9381E081A304883D
:10279000F589E02D80818064808381E090E0DF9185
:1027A000CF911F910F910895FB01E05CFF4F2081B5
:1027B0003181DB01AE5BBF4F4D915C912F5F3F4F8D
:1027C0002F7333274217530741F040815181DB01BA
:1027D000A40FB51F8C9331832083089508951F9211
:1027E0000F920FB60F9211240BB60F922F933F93B7
:1027F0004F935F936F937F938F939F93AF93BF9309
:10280000EF93FF938091C00082FD07C08091C600C6
:102810006BE87BE00E94D41302C08091C600FF9158
:10282000EF91BF91AF919F918F917F916F915F9148
:102830004F913F912F910F900BBE0F900FBE0F90B5
:102840001F90189508951F920F920FB60F921124A2
:102850000BB60F922F933F934F935F936F937F939A
:102860008F939F93AF93BF93EF93FF938091C80093
:1028700082FD07C08091CE0063E07BE00E94D4130C
:1028800002C08091CE00FF91EF91BF91AF919F91D7
:102890008F917F916F915F914F913F912F910F9009
:1028A0000BBE0F900FBE0F901F90189508951F92AA
:1028B0000F920FB60F9211240BB60F922F933F93E6
:1028C0004F935F936F937F938F939F93AF93BF9338
:1028D000EF93FF938091D00082FD07C08091D600D6
:1028E0006BE77AE00E94D41302C08091D600FF917A
:1028F000EF91BF91AF919F918F917F916F915F9178
:102900004F913F912F910F900BBE0F900FBE0F90E4
:102910001F90189508951F920F920FB60F921124D1
:102920000BB60F922F933F934F935F936F937F93C9
:102930008F939F93AF93BF93EF93FF938091300159
:1029400082FD07C08091360163EF79E00E94D413C5
:1029500002C080913601FF91EF91BF91AF919F919D
:102960008F917F916F915F914F913F912F910F9038
:102970000BBE0F900FBE0F901F9018958DE899E039
:102980000E943B13892B11F00E94EE138BE699E015
:102990000E943B13892B11F00E94221489E499E0D4
:1029A0000E943B13892B11F00E94561487E299E094
:1029B0000E943B13892B11F00C948A1408951F92E6
:1029C0000F920FB60F9211240BB60F922F933F93D5
:1029D0008F939F93EF93FF932091870B3091880BF8
:1029E0008091890B90918A0B2817390731F48091D7
:1029F000C1008F7D8093C10014C0E091890BF091DC
:102A00008A0BE95BF44F20818091890B90918A0BAE
:102A100001968F73992790938A0B8093890B20934B
:102A2000C600FF91EF919F918F913F912F910F9051
:102A30000BBE0F900FBE0F901F9018951F920F9214
:102A40000FB60F9211240BB60F922F933F938F93D3
:102A50009F93EF93FF932091FF0A3091000B809199
:102A6000010B9091020B2817390731F48091C900AE
:102A70008F7D8093C90014C0E091010BF091020B8F
:102A8000E154F54F20818091010B9091020B01964A
:102A90008F7399279093020B8093010B2093CE00A4
:102AA000FF91EF919F918F913F912F910F900BBECE
:102AB0000F900FBE0F901F9018951F920F920FB698
:102AC0000F9211240BB60F922F933F938F939F93E6
:102AD000EF93FF932091770A3091780A8091790AD9
:102AE00090917A0A2817390731F48091D1008F7DAF
:102AF0008093D10014C0E091790AF0917A0AE95CE0
:102B0000F54F20818091790A90917A0A01968F730E
:102B1000992790937A0A8093790A2093D600FF919F
:102B2000EF919F918F913F912F910F900BBE0F903E
:102B30000FBE0F901F9018951F920F920FB60F9215
:102B400011240BB60F922F933F938F939F93EF9384
:102B5000FF932091EF093091F0098091F109909154
:102B6000F2092817390731F4809131018F7D809364
:102B7000310114C0E091F109F091F209E155F64FED
:102B800020818091F1099091F20901968F73992724
:102B90009093F2098093F10920933601FF91EF9110
:102BA0009F918F913F912F910F900BBE0F900FBE71
:102BB0000F901F901895CF92DF92EF92FF92CF93D4
:102BC000DF93EC016A017B014115514E61057105EE
:102BD00009F1EC89FD8981E090E008A002C0880F2E
:102BE000991F0A94E2F7808360E079E08DE390E03A
:102BF000A70196010E94FA18DA01C9010197A109FB
:102C0000B109B695A795979587959C01211580E107
:102C10003807A8F0EC89FD89108260E874E88EE13D
:102C200090E0A70196010E94FA18DA01C901019704
:102C3000A109B109B695A795979587959C01E88953
:102C4000F9893083EA89FB89208319A2EE89FF89FB
:102C5000408181E090E09C010C8C02C0220F331F68
:102C60000A94E2F7242B2083EE89FF8940819C019E
:102C70000D8C02C0220F331F0A94E2F7242B20830D
:102C8000EE89FF8940819C010E8C02C0220F331F08
:102C90000A94E2F7242B2083EE89FF8920810F8C90
:102CA00002C0880F991F0A94E2F7809582238083DF
:102CB000DF91CF91FF90EF90DF90CF900895CF926A
:102CC000DF92EF92FF92EDE8F9E01382128288EE34
:102CD000C82E83E0D82EE12CF12CC482D582E68266
:102CE000F78262E174E0718360838BE89BE09587F3
:102CF000848787E49BE09787868785EC90E0918BBB
:102D0000808B84EC90E0938B828B80EC90E0958BB1
:102D1000848B81EC90E0978B868B82EC90E0918F96
:102D2000808F86EC90E0938F828F44E0448F33E075
:102D3000358F27E0268F95E0978F81E080A3EBE623
:102D4000F9E013821282C482D582E682F78271830F
:102D50006083A3E0BBE0B587A487AFEBBAE0B78799
:102D6000A687ADECB0E0B18BA08BACECB0E0B38B40
:102D7000A28BA8ECB0E0B58BA48BA9ECB0E0B78B2C
:102D8000A68BAAECB0E0B18FA08FAEECB0E0B38F11
:102D9000A28F448F358F268F978F80A3E9E4F9E0C7
:102DA00013821282C482D582E682F78271836083A5
:102DB000ABE7BAE0B587A487A7E3BAE0B787A687F1
:102DC000A5EDB0E0B18BA08BA4EDB0E0B38BA28BEE
:102DD000A0EDB0E0B58BA48BA1EDB0E0B78BA68BD6
:102DE000A2EDB0E0B18FA08FA6EDB0E0B38FA28FBF
:102DF000448F358F268F978F80A3E7E2F9E0138207
:102E00001282C482D582E682F7827183608363EF87
:102E100079E0758764876FEA79E07787668765E38D
:102E200071E0718B608B64E371E0738B628B60E3A4
:102E300071E0758B648B61E371E0778B668B62E385
:102E400071E0718F608F66E371E0738F628F448FE2
:102E5000358F268F978F80A3FF90EF90DF90CF90D4
:102E60000895CF92DF92EF92FF920F931F93CF932B
:102E7000DF936C01EB017B01E40EF51E00E010E036
:102E8000CE15DF0561F06991D601ED91FC910190BD
:102E9000F081E02DC6011995080F191FF1CFC80167
:102EA000DF91CF911F910F91FF90EF90DF90CF9026
:102EB00008950F931F93CF93DF938230910510F401
:102EC00082E090E0E091D10BF091D20B20E030E075
:102ED000A0E0B0E0309719F1408151810281138167
:102EE00048175907C8F08417950769F4109731F00F
:102EF00012960C93129713961C9327C00093D10B34
:102F00001093D20B22C02115310519F04217530737
:102F100018F49A01BD01EF01DF01F801DBCF2115A3
:102F20003105F9F0281B390B2430310580F48A81F2
:102F30009B816115710521F0FB019383828304C09D
:102F40009093D20B8093D10BFE01329644C0FE01C8
:102F5000E20FF31F81939193225031093983288323
:102F60003AC02091CF0B3091D00B232B41F420910C
:102F70000402309105023093D00B2093CF0B2091A7
:102F80000202309103022115310541F42DB73EB7FD
:102F90004091060250910702241B350BE091CF0BA4
:102FA000F091D00BE217F307A0F42E1B3F0B28176C
:102FB000390778F0AC014E5F5F4F2417350748F0B2
:102FC0004E0F5F1F5093D00B4093CF0B8193919383
:102FD00002C0E0E0F0E0CF01DF91CF911F910F91AF
:102FE0000895CF93DF93009709F481C0FC013297D5
:102FF00013821282A091D10BB091D20B109781F461
:1030000020813181820F931F2091CF0B3091D00B03
:103010002817390751F5F093D00BE093CF0B67C019
:10302000ED0120E030E0CE17DF0740F44A815B81FC
:103030009E0141155105F1F0EA01F5CFD383C2831A
:1030400040815181840F951FC817D90759F4888191
:103050009981840F951F0296918380838A819B8139
:10306000938382832115310529F4F093D20BE093E9
:10307000D10B3DC0E901FB83EA8349915991C40F0B
:10308000D51FEC17FD0761F480819181840F951F96
:103090000296E90199838883828193819B838A8345
:1030A000E0E0F0E012968D919C911397009719F053
:1030B000FD01DC01F7CF8D919C9111979D012E5F51
:1030C0003F4F820F931F2091CF0B3091D00B2817C9
:1030D000390769F4309729F41092D20B1092D10B72
:1030E00002C013821282B093D00BA093CF0BDF915A
:1030F000CF910895CF92DF92EF92FF920F931F939B
:10310000CF93DF938C01EB01688179818A819B8168
:1031100020E03AEC4AE95BE30E94FA18F801C0802B
:10312000D180E280F380C20ED31EE41EF51EC08261
:10313000D182E282F382688379838A839B83DF91E1
:10314000CF911F910F91FF90EF90DF90CF90089556
:103150000E94AD1808F481E00895990F0008550FFA
:10316000AA0BE0E8FEEF16161706E807F907C0F00D
:1031700012161306E407F50798F0621B730B840B15
:10318000950B39F40A2661F0232B242B252B21F4EF
:1031900008950A2609F4A140A6958FEF811D811D8F
:1031A00008950E94AD1808F48FEF0895DB018F9306
:1031B0009F930E942419BF91AF91A29F800D911DF2
:1031C000A39F900DB29F900D1124089597FB072E99
:1031D00016F4009407D077FD09D00E942F1907FC40
:1031E00005D03EF4909581959F4F08957095619517
:1031F0007F4F0895A1E21A2EAA1BBB1BFD010DC033
:10320000AA1FBB1FEE1FFF1FA217B307E407F50796
:1032100020F0A21BB30BE40BF50B661F771F881F72
:10322000991F1A9469F760957095809590959B0108
:10323000AC01BD01CF010895EE0FFF1F881F8BBFAA
:103240000790F691E02D19940E944319A59F900DC7
:10325000B49F900DA49F800D911D11240895AA1B69
:10326000BB1B51E107C0AA1FBB1FA617B70710F071
:10327000A61BB70B881F991F5A95A9F780959095A3
:10328000BC01CD010895A29FB001B39FC001A39FCF
:10329000700D811D1124911DB29F700D811D11248F
:1032A000911D0895FB01DC0102C001900D92415077
:0A32B0005040D8F70895F894FFCFBE
:1032BA0088130000D30B80007374645F6D736773A7
:1032CA002F54696D6500636437313636633734636A
:1032DA00353532633331316662636332666535612F
:1032EA0037626332383900726F7373657269616C61
:1032FA005F6D7367732F546F706963496E666F00F1
:10330A003061643531663838666334343839326648
:10331A003863313036383430373736343630303532
:10332A0000726F7373657269616C5F6D7367732F77
:10333A004C6F67003131616264373331633235393A
:10334A00333332363163643631383362643132644E
:10335A003632393500396630653938626461363556
:10336A0039383139383664646635336166613761B4
:10337A0034306534390067656F6D657472795F6DD5
:10338A007367732F566563746F7233003461383410
:10339A0032623635663431333038346463326231FE
:1033AA003066623438346561376631370067656F75
:1033BA006D657472795F6D7367732F54776973746F
:1033CA0000396631393566383831323436666466E2
:1033DA006132373938643164336565626361383420
:1033EA0061004D6573736167652066726F6D206455
:1033FA0065766963652064726F707065643A206DE2
:10340A00657373616765206C6172676572207468A1
:10341A00616E206275666665722E002F636D645F49
:10342A0076656C0000000000AD01D10117021A0296
:10343A0000000000310846091D02200200000000B9
:10344A00FF07F00823022602000000002607340ABC
:10345A0029022C02000000006A035E042F023202D5
:10346A00000000009A0388043502380200000000B8
:10347A004A02C60D450200000000A4043B023F02B6
:10348A004202080009000A000B0032003300300033
:10349A00310004000500060007002E002F002C0052
:1034AA002D00726F7373657269616C5F6D736773F8
:1034BA002F52657175657374506172616D000000F9
:0E34CA000000921331173B1367134B13871347
:00000001FF
